:100000000204A402048D75809775A00175A0007587
:10001000800775A00175A000752000752114E521E9
:100020004520700280028003020221E521B41407FA
:10003000E520B40002800280097580A275A00375D6
:10004000A002E521B41307E520B400028002800974
:100050007580A075A00375A002E521B41207E52004
:10006000B40002800280097580A775A00375A00204
:10007000E521B41107E520B40002800280097580F3
:10008000A575A00375A002E521B41007E520B40012
:1000900002800280097580AE75A00375A002E5217B
:1000A000B40F07E520B40002800280097580A975AD
:1000B000A00375A002E521B40E07E520B40002807C
:1000C0000280097580AE75A00375A002E521B40D0C
:1000D00007E520B400028002800975800075A00346
:1000E00075A002E521B40C07E520B400028002806F
:1000F0000975800075A00375A002E521B40B07E522
:1001000020B400028002800975800075A00375A0EC
:1001100002E521B40A07E520B400028002800975D7
:10012000800075A00375A002E521B40907E520B49D
:1001300000028002800975800075A00375A002E5A9
:1001400021B40807E520B400028002800975800010
:1001500075A00375A002E521B40707E520B40002ED
:100160008002800975800075A00375A002E521B4A6
:100170000607E520B400028002800975800075A0A2
:100180000375A002E521B40507E520B40002800252
:10019000800975800075A00375A002E521B40407ED
:1001A000E520B400028002800975800075A0037507
:1001B000A002E521B40307E520B400028002800913
:1001C00075800075A00375A002E521B40207E52043
:1001D000B400028002800975800075A00375A0023A
:1001E000E521B40107E520B4000280028009758092
:1001F0000075A00375A002E52145207002800280F1
:100200000975800075A00375A002E52124FFF52182
:10021000E52034FFF520E52145207002800302002F
:100220002B7580C075A00175A00075800675A001B2
:1002300075A000752000752108E521452070028019
:10024000028003020315E521B40807E520B400028B
:100250008002800975800075A00375A002E521B4B5
:100260000707E520B40002800280097580AB75A005
:100270000375A002E521B40607E520B40002800260
:1002800080097580A975A00375A002E521B4050752
:10029000E520B40002800280097580B175A0037565
:1002A000A002E521B40407E520B400028002800921
:1002B0007580A975A00375A002E521B40307E520A8
:1002C000B40002800280097580AC75A00375A0029D
:1002D000E521B40207E520B40002800280097580A0
:1002E000AC75A00375A002E521B40107E520B400B8
:1002F000028002800975800075A00375A002E521C7
:1003000024FFF521E52034FFF520E521452070028A
:1003100080030202467580CA75A00175A000752091
:100320000075210EE5214520700280028003020441
:100330008AE521B40E07E520B40002800280097529
:1003400080A475A00375A002E521B40D07E520B4D3
:100350000002800280097580AD75A00375A002E5DA
:1003600021B40C07E520B40002800280097580A941
:1003700075A00375A002E521B40B07E520B40002C7
:10038000800280097580B375A00375A002E521B4D1
:100390000A07E520B40002800280097580B175A0CB
:1003A0000375A002E521B40907E520B4000280022C
:1003B00080097580A975A00375A002E521B408071E
:1003C000E520B40002800280097580A575A0037540
:1003D000A002E521B40707E520B4000280028009ED
:1003E0007580A275A00375A002E521B40607E5207B
:1003F000B40002800280097580A975A00375A0026F
:10040000E521B40507E520B400028002800975806B
:10041000B875A00375A002E521B40407E520B40077
:10042000028002800975800075A00375A002E52195
:10043000B40307E520B400028002800975800075CE
:10044000A00375A002E521B40207E520B4000280F4
:1004500002800975800075A00375A002E521B40132
:1004600007E520B400028002800975800075A003B2
:1004700075A002E52124FFF521E52034FFF520E5F4
:100480002145207002800302033180FE2202000613
:10049000E4F5D0758124F520F521F522F52312002D
:0704A00003020000020490BA
:00000001FF
