:10000000020058898288838B00EC4D6036E4E0F66C
:1000100008A31DBDFFF31C80F0B800118B00EC4D50
:100020006021E7F609081DBDFFF41C80F189828874
:10003000838B00EC4D600CE493F608A31DBDFFF329
:100040001C80F022E4F5D075813C78207A1CF608FB
:0B005000DAFC12012D02000002004447
:1001000056415A48454E494E4B4952494C4C444D34
:1001100049545249455649434880108D998D3B803A
:1001200000309902800280F9C2992280EE02023EDC
:10013000780179007A007B227D087C001200197812
:100140000179087A007B2A7D067C0012001978016B
:10015000790E7A007B307D0B7C0012001975878048
:10016000758920D28E758DFDE4F520F521E52124D9
:10017000F6E5206480347F500280028002802C7477
:10018000222521F987E075985074222521F98705E9
:100190001201190521E52170020520E52124F6E56B
:1001A000206480347F5002800280D47D0A120119BD
:1001B000E4F520F521E52124F8E5206480347F5022
:1001C0000280028002802C742A2521F987E075982C
:1001D00050742A2521F987051201190521E521709E
:1001E000020520E52124F8E5206480347F50028058
:1001F0000280D47D0A120119E4F520F521E52124BD
:10020000F2E5206480347F500280028002802C74EA
:10021000302521F987E075985074302521F987053C
:100220001201190521E52170020520E52124F2E5DE
:10023000206480347F5002800280D480FE2202013C
:01024000308D
:00000001FF
