:1000000002084C020813E4F522F5237589017524D2
:1000100000752501752602752704752808752910B5
:10002000752A20752B40752C80852490E523452268
:10003000700280030201D2E5282529F59080080589
:1000400021E5217002052030B0028021750800757D
:100050000901750A86750BA0A820A921AD01E8FC4D
:100060003395E0FBFA12081620E704800080048034
:100070000080CC30B0128000E52324FBE5226480B0
:10008000347F4004800080048000801B0523E5232A
:1000900070020522E523B40407E522B400028002C1
:1000A0008005E4F522F523E4F520F521E527252A4E
:1000B000F59080080521E5217002052030B002800E
:1000C0000EE5212438E5206480347F5004800080D0
:1000D00004800080DF30B0128000E52324FBE5229D
:1000E0006480347F4004800080048000801B0523EE
:1000F000E52370020522E523B40407E522B40002DB
:1001000080028005E4F522F523E4F520F521E526BB
:10011000252BF59080080521E5217002052030B0DF
:1001200002800EE5212470E5206480347E50048036
:10013000008004800080DF30B0128000E52324FBC3
:10014000E5226480347F4004800080048000801BAE
:100150000523E52370020522E523B40407E522B454
:10016000000280028005E4F522F523E4F520F52164
:10017000E525252CF59080080521E5217002052054
:1001800030B002800EE52124E0E5206480347C500C
:100190000480008004800080DF30B0128000E523FE
:1001A00024FBE5226480347F4004800080048000CA
:1001B000801B0523E52370020522E523B40407E52F
:1001C00022B4000280028005E4F522F523E4F52044
:1001D000F521E523B40107E522B400028003020300
:1001E00069E5252526F59080080521E521700205A1
:1001F0002030B002800EE5212418E5206480347C94
:10020000500480008004800080DF30B0128000E560
:100210002324FBE5226480347F4004800080048036
:1002200000801B0523E52370020522E523B40407A3
:10023000E522B4000280028005E4F522F523E4F50E
:1002400020F521E5272528F59080080521E5217076
:1002500002052030B002800EE5212418E5206480DC
:10026000347C500480008004800080DF30B0128035
:1002700000E52324FBE5226480347F400480008075
:10028000048000801B0523E52370020522E523B4CA
:100290000407E522B4000280028005E4F522F5237C
:1002A000E4F520F521E529252AF59080080521E5CA
:1002B000217002052030B002800EE5212418E520CF
:1002C0006480347C500480008004800080DF30B083
:1002D000128000E52324FBE5226480347F40048003
:1002E0000080048000801B0523E52370020522E5C1
:1002F00023B40407E522B4000280028005E4F5225D
:10030000F523E4F520F521E52B252CF59080080553
:1003100021E5217002052030B002800EE52124186D
:10032000E5206480347C500480008004800080DFFD
:1003300030B0128000E52324FBE5226480347F4046
:1003400004800080048000801B0523E523700205E3
:1003500022E523B40407E522B4000280028005E40C
:10036000F522F523E4F520F521E523B40207E52283
:10037000B400028003020678792587908008052161
:10038000E5217002052030B002800EE521240CE545
:10039000206480347E500480008004800080DF3040
:1003A000B0128000E52324FBE5226480347F400402
:1003B000800080048000801B0523E5237002052255
:1003C000E523B40407E522B4000280028005E4F5C9
:1003D00022F523E4F520F521792687908008052170
:1003E000E5217002052030B002800EE521240CE5E5
:1003F000206480347E500480008004800080DF30E0
:10040000B0128000E52324FBE5226480347F4004A1
:10041000800080048000801B0523E52370020522F4
:10042000E523B40407E522B4000280028005E4F568
:1004300022F523E4F520F52179278790800805210E
:10044000E5217002052030B002800EE521240CE584
:10045000206480347E500480008004800080DF307F
:10046000B0128000E52324FBE5226480347F400441
:10047000800080048000801B0523E5237002052294
:10048000E523B40407E522B4000280028005E4F508
:1004900022F523E4F520F5217928879080080521AD
:1004A000E5217002052030B002800EE521240CE524
:1004B000206480347E500480008004800080DF301F
:1004C000B0128000E52324FBE5226480347F4004E1
:1004D000800080048000801B0523E5237002052234
:1004E000E523B40407E522B4000280028005E4F5A8
:1004F00022F523E4F520F52179298790800805214C
:10050000E5217002052030B002800EE521240CE5C3
:10051000206480347E500480008004800080DF30BE
:10052000B0128000E52324FBE5226480347F400480
:10053000800080048000801B0523E52370020522D3
:10054000E523B40407E522B4000280028005E4F547
:1005500022F523E4F520F521792A879080080521EA
:10056000E5217002052030B002800EE521240CE563
:10057000206480347E500480008004800080DF305E
:10058000B0128000E52324FBE5226480347F400420
:10059000800080048000801B0523E5237002052273
:1005A000E523B40407E522B4000280028005E4F5E7
:1005B00022F523E4F520F521792B87908008052189
:1005C000E5217002052030B002800EE521240CE503
:1005D000206480347E500480008004800080DF30FE
:1005E000B0128000E52324FBE5226480347F4004C0
:1005F000800080048000801B0523E5237002052213
:10060000E523B40407E522B4000280028005E4F586
:1006100022F523E4F520F521792C87908008052127
:10062000E5217002052030B002800EE521240CE5A2
:10063000206480347E500480008004800080DF309D
:10064000B0128000E52324FBE5226480347F40045F
:10065000800080048000801B0523E52370020522B2
:10066000E523B40407E522B4000280028005E4F526
:1006700022F523E4F520F521E523B40307E522B4B0
:100680000002800302080FE5252527F59080080564
:1006900021E5217002052030B002800EE5212418EA
:1006A000E5206480347C500480008004800080DF7A
:1006B00030B0128000E52324FBE5226480347F40C3
:1006C00004800080048000801B0523E52370020560
:1006D00022E523B40407E522B4000280028005E489
:1006E000F522F523E4F520F521E5262528F590806F
:1006F000080521E5217002052030B002800EE521B9
:100700002418E5206480347C50048000800480003C
:1007100080DF30B0128000E52324FBE522648034C2
:100720007F4004800080048000801B0523E5237047
:10073000020522E523B40407E522B400028002800A
:1007400005E4F522F523E4F520F521E529252BF52F
:100750009080080521E5217002052030B002800E4E
:10076000E5212418E5206480347C50048000800456
:10077000800080DF30B0128000E52324FBE5226496
:1007800080347F4004800080048000801B0523E5C6
:100790002370020522E523B40407E522B400028099
:1007A000028005E4F522F523E4F520F521E52A256C
:1007B0002CF59080080521E5217002052030B0025B
:1007C000800EE5212418E5206480347C50048000EC
:1007D0008004800080DF30B0128000E52324FBE538
:1007E000226480347F4004800080048000801B05E8
:1007F00023E52370020522E523B40407E522B400B3
:100800000280028005E4F522F523E4F520F52102BB
:10081000002C22020006C3EA9508600830D218B204
:10082000E7D2E022EB9509700AEC950A7005ED9588
:100830000B6004D2E092E722E4F5D075812D782098
:0F0840007A0DF608DAFC120003020000020838F5
:00000001FF
